:1000000012C024C023C022C021C020C01FC01EC0F7
:100010001DC01DC01BC01AC019C018C017C016C013
:1000200015C014C013C011241FBECFE5D4E0DEBF3D
:10003000CDBF10E0A0E6B0E0EAE9F0E002C0059034
:100040000D92A236B107D9F71FD025C0D9CF1F9284
:100050000F920FB60F9211248F939F93809160009F
:10006000882321F081508093600007C085E0809351
:10007000600098B381E0892788BB9F918F910F9092
:100080000FBE0F901F90189581E087BB95E093BF3E
:0A00900089BF7894FFCFF894FFCFEA
:02009A0005005F
:00000001FF
