:1000000012C024C023C022C021C020C01FC01EC0F7
:100010001DC01DC01BC01AC019C018C017C016C013
:1000200015C014C013C011241FBECFE5D4E0DEBF3D
:10003000CDBF10E0A0E6B0E0EEE8F0E002C0059031
:100040000D92A236B107D9F717D01FC0D9CF8F9321
:100050008FB78F9380916000882339F0815080930F
:1000600060008F918FBF8F91189585E0809360001D
:1000700082B3805882BBF5CF8F9A83B7856083BFE8
:0E00800089B7816089BF7894FFCFF894FFCFD5
:02008E0005006B
:00000001FF
